{
  "contractName": "DuffyToken",
  "abi": [
    {
      "constant": true,
      "inputs": [],
      "name": "totalSupply",
      "outputs": [
        {
          "name": "",
          "type": "uint256"
        }
      ],
      "payable": false,
      "stateMutability": "view",
      "type": "function"
    },
    {
      "inputs": [],
      "payable": false,
      "stateMutability": "nonpayable",
      "type": "constructor"
    }
  ],
  "bytecode": "0x60606040523415600e57600080fd5b6103e8600081905550609c806100256000396000f300606060405260043610603f576000357c0100000000000000000000000000000000000000000000000000000000900463ffffffff16806318160ddd146044575b600080fd5b3415604e57600080fd5b6054606a565b6040518082815260200191505060405180910390f35b600054815600a165627a7a723058202caa128d21ec0344469b14727506eaeb5c644697f84001d2248dbc5c30416e560029",
  "source": "pragma solidity ^0.4.2;\n\ncontract DuffyToken {\n\t\t// Constructor\n\t\t// Set total number of tokens\n\t\t// Read the total number of tokens\n\t\tuint256 public totalSupply;\n\n\t\tfunction DuffyToken() public {\n\t\t\t\ttotalSupply = 1000;\n\t\t}\n\n}",
  "sourcePath": "/Users/stuart/projects/token_sale/contracts/DuffyToken.sol",
  "compiler": {
    "name": "solc",
    "version": "0.4.21+commit.dfe3193c.Emscripten.clang"
  },
  "schemaVersion": "2.0.0",
  "updatedAt": "2018-04-03T15:20:27.644Z"
}